:020000040800F2
:10000000A0040020C5000008710E00088F0D000834
:1000100000000000000000000000000000000000E0
:10002000000000000000000000000000750E000845
:100030000000000000000000730E0008770E0008AA
:10004000D7000008D7000008D7000008D700000834
:10005000D7000008D7000008D7000008D700000824
:1000600000000000D7000008D7000008D7000008F3
:10007000D7000008D7000008D7000008D700000804
:10008000D70000080000000000000000D7000008B2
:1000900000000000D7000008D7000008D7000008C3
:1000A00000000000D70000080000000079120008DE
:1000B0000348854600F0A2F80048004721140008D4
:1000C000A00400200448804704480047FEE7FEE7FC
:1000D000FEE7FEE7FEE7FEE7D10E0008B1000008EC
:1000E00030B50B46014600202022012409E00D46D0
:1000F000D5409D4205D31D469540491B2546954058
:1001000040191546521E002DF1DC30BDF0B51FB46C
:100110000646002082B005464024019100901BE075
:10012000019922460F46304600F020F8049A059BBC
:10013000801A994110D310461946224600F04EF815
:10014000361A8F410197224601200021009F00F0BE
:1001500045F838184D4100902046641E0028DFDC29
:10016000019B00982946324607B0F0BD10B5202A01
:1001700004DB0846203AD040002110BD0B46D34096
:10018000D0402024A21A91400843194610BDD2B293
:1001900001E00270401C491EFBD270470022F6E7C6
:1001A00010B513460A4604461946FFF7F0FF2046ED
:1001B00010BD421C0178401C0029FBD1801A7047F9
:1001C00010B5002200E0521C835C8C5CA34201D17C
:1001D000002BF8D1D8B2E1B2401A10BD10B5202AD8
:1001E00004DB0146203A9140002010BD91402023BD
:1001F0009C1A0346E3401943904010BD064C01256C
:10020000064E05E0E36807CC2B430C3C98471034BE
:10021000B442F7D3FFF750FFD4140008F4140008D9
:10022000704770B50024014620314A78022A03D075
:1002300004218163012416E0026813680E25AB4394
:100240001360026813685B085B0013600122056C91
:100250001346AB40C56B6B604A7000220A70416B5D
:10026000002900D08847204670BD0000F8B5002363
:1002700089E001249C402A46A44622407ED04C6856
:10028000022C01D0122C0CD1DC08A40027183C6AE7
:100290005D07ED0E0F26AE40B4430E69AE40264317
:1002A0003E6205685E000324B4400F79A543BF0792
:1002B000BF0FB7402F4307604D68012D05D0022DB9
:1002C00003D0112D01D0122D0ED18568CF68A54322
:1002D000B7402F43876047686546AF430D79ED0609
:1002E000ED0F9D403D434560C568A5438C68B44013
:1002F0002C43C4604C68E40044D5264CA569012613
:100300003543A561A4699D0834400094224CAD009A
:100310002F19BC689D072E0F0F25B540AC4309254A
:10032000ED06A84201D100250AE01C4DA84201D1EA
:10033000012505E01A4DA84201D1022500E005255E
:10034000B5402543BD60174C25684E689543F603BC
:1003500000D51543256065684E689543B60300D502
:1003600015436560A5684E689543F60200D51543B0
:10037000A560E5684E689543B60200E002E000D54E
:100380001543E5605B1C0A681546DA4000D070E74B
:10039000F8BD0000001002400000014000040048C9
:1003A00000080048000401400069084000D0012016
:1003B0007047002A01D08161704781627047000058
:1003C00001488068704700001000002002488168E2
:1003D00002788918816070471000002010B5064827
:1003E0000168102211430160002000F007F800F0BE
:1003F00027F8002010BD00000020024070B5044620
:100400000D4D7D202978C000FFF76AFE01460B489C
:100410000068FFF765FE00F043FB002809D1042CBB
:1004200007D200222146401E00F02AF800206C600E
:1004300070BD012070BD0000100000201C000020D5
:1004400008B5084881690122114381618169114021
:100450000091C26901040A43C261C069084000906A
:1004600008BD000000100240002805DBC106C90ECF
:1004700001208840014908607047000000E100E069
:1004800010B500F019FF10BDF8B505460068354CF1
:10049000C00352D5E0690026C00007D4E1692004FA
:1004A0000143E161E1690140012600912E480168A4
:1004B000C90510D40168821511430160FFF780FF60
:1004C000074604E0FFF77CFFC01B642824D82648B9
:1004D0000068C005F6D5206A03273F02384020D0C7
:1004E0006968394081421CD0206A226AB8430121E0
:1004F00009040A432262226A8A4322622062C007F8
:100500000FD0FFF75DFF009008E0FFF759FF00995B
:10051000411A1648814201D90320F8BD206A80079C
:10052000F3D5206A6968B84308432062002E04D0DE
:10053000E169012000078143E1612878C00705D007
:10054000206BA96880088000084320632878800613
:1005500005D5206B10218843E968084320630020FB
:10056000F8BD000000100240007000408813000039
:10057000F8B50F46060059D03A4D2868C007C00F9D
:10058000B84209D2286840084000384328602868EB
:10059000C007C00FB84249D13068334C81070CD531
:1005A000400704D56068072109020843606060685D
:1005B000F0218843B168084360603078C00726D0D6
:1005C000706801280ED0216802280ED08907002902
:1005D0002CDA61688908890001436160FFF7F0FE49
:1005E00000900DE021688903F1E78901EFE7FFF74B
:1005F000E7FE0099411A1D48814201D90320F8BD48
:1006000060680C210840716889008842EFD1286831
:10061000C007C00FB8420BD92868400840003843D3
:1006200028602868C007C00FB84201D00120F8BD7B
:100630003078400706D56068072109028843F168D1
:100640000843606000F028F86168094A0906090F4C
:10065000515CC840074908600020FFF7CFFE00202A
:10066000F8BD000000200240001002408813000086
:10067000981400081C0000200448054900684968D7
:10068000044A4905490F515CC84070471C000020CE
:1006900000100240A814000810B514A30FCB88B0B6
:1006A0006C460FC415A30FCB0FC4184A51680C2019
:1006B0000B4603401648042B16D0082B14D18B028E
:1006C0001B0F6C46E45CD26A04AB1207120F9A5CF3
:1006D000C90305D500231946FFF718FD214601E09F
:1006E00020460C4900F0D0FD08B010BD02030405FF
:1006F000060708090A0B0C0D0E0F10100102030467
:1007000005060708090A0B0C0D0E0F100010024019
:1007100000127A0000093D00FEB5040070D0207878
:10072000DC4DC0074AD068680007800F012807D059
:1007300068680007800F022809D16868C00306D5E1
:10074000286880033AD560680028E7D036E0616801
:10075000012914D001208004002901D0052914D0DA
:100760002A68012109048A432A6029688143296093
:100770006068002816D0FFF723FE06460EE02868C2
:100780000121090408432860F2E729680143296030
:10079000F5E7FFF715FE801B64286ED828688003F4
:1007A000F7D50BE0FFF70CFE064604E0FFF708FE66
:1007B000801B6428F1D828688003F7D420780126AC
:1007C000800700283CDA68680007800F07D0686857
:1007D0000007800F022809D16868C00306D4286882
:1007E000800716D5E06801280AD112E0E0680028E9
:1007F000286816D030432860FFF7E2FD074605E081
:1008000043E1FFF7DDFDC01B0228C6D8286880073A
:10081000F7D52868F82188432169C9000843286072
:100820000EE0400840002860FFF7CAFD074604E0DC
:10083000FFF7C6FDC01B0228AFD828688007F7D491
:100840002078000722D5E0690028686A0ED030437E
:100850006862FFF7B5FD074604E0FFF7B1FDC01B76
:1008600002289AD8686A8007F7D50FE04008400050
:100870006862FFF7A5FD074605E09DE0FFF7A0FDD4
:10088000C01B022889D8686A8007F7D4207804271B
:100890004007002860DA00200190E869C00008D411
:1008A000E969B8060143E961E96901400120009165
:1008B000019079480168C90511D401688215114376
:1008C0000160FFF77DFD009005E0FFF779FD0099DD
:1008D000401A642870D870480068C005F5D5A06833
:1008E00001280AD0002801D0052810D0286A400825
:1008F00040002862286AB84301E0286A3043286231
:10090000A068002812D0FFF75BFD00900AE0286A7B
:1009100038432862F1E7FFF753FD0099411A5F4819
:10092000814249D8286A8007F5D50DE0FFF748FDD8
:10093000009006E0FFF744FD0099411A57488142B4
:100940003AD8286A8007F5D40198002804D0E969CC
:10095000012000078143E9612078C00635D5606930
:1009600001280CD0401D686B23D038436863686B46
:10097000400840006863FFF723FD064622E0686BED
:1009800038436863686B30436863FFF719FD0646B8
:1009900004E0FFF715FD801B02285BD8686B800719
:1009A000F7D5686BF8218843A169C90008436863DB
:1009B0000BE0B8436863F4E74CE0FFF701FD801BF0
:1009C000022847D8686B8007F7D4206A00285ED0D9
:1009D00069680907890F022942D0012636060228D4
:1009E000286805D0B0432860FFF7EAFC044633E0EE
:1009F000B0432860FFF7E4FC074604E0FFF7E0FCA3
:100A0000C01B022826D828688001F7D4E86AE16A6A
:100A1000000900010843E862616AA06A0843696846
:100A20003D221204914308436860286830432860DF
:100A3000FFF7C6FC044604E0FFF7C2FC001B0228D7
:100A400008D828688001F7D521E0FFF7B9FC001B22
:100A5000022801D90320FEBD28688001F5D416E0E4
:100A60000128F8D06868E96A01221204636A02402A
:100A70009A420AD10907E26A090F914205D10F2172
:100A800089040840A16A884201D00120FEBD0020EF
:100A9000FEBD0000001002400070004088130000FE
:100AA000094910B5401E884201D9012010BD074CEC
:100AB00060610321081F00F0FFFB0020A0610720F8
:100AC0002061002010BD0000FFFFFF0000E000E0FB
:100AD00070477047F8B502680446D069116893689A
:100AE000524D05402E462025002E68D0DE07F60F19
:100AF000FF2721370F40374375D0C70706D0CF05F2
:100B000004D501271762E26F3A43E267820708D5EE
:100B1000DA0706D0276802223A62E26F04273A43D6
:100B2000E267420708D5DA0706D0236804221A6272
:100B3000E26F02231A43E267020709D50A462A40F8
:100B4000324305D0236808221A62E36F1343E36738
:100B5000020508D54A0106D501222368D2021A628D
:100B6000E26F2A43E267E26F002A30D0800606D5A2
:100B7000880604D5216E002901D020468847E06F01
:100B800021688968490602D42821084224D02046D9
:100B900000F03EFA20688168490619D58168402234
:100BA00091438160E06E002812D021494163E06EDC
:100BB000FFF737FB00280AD0E06E416B06E086069F
:100BC00011D58E060FD5216E1DE020468847F8BD51
:100BD0002046FFF77EFFF8BD2046FFF77AFF002092
:100BE000E067F8BDFFE7C60208D55B0206D5012025
:100BF000000510622046FFF76BFFF2E7030605D5FC
:100C00000B0603D5616E0029DFD1EAE74006E8D57F
:100C10004806E6D51368204640218B43136065677C
:100C20000021616600F0B2F8DBE700000F08000069
:100C3000FD0F000810B5040003D0606F002802D03B
:100C400007E0012010BD002170200155204600F072
:100C500027F824206067206801684908490001607E
:100C6000204600F0E5F90128ECD0606A002802D0A7
:100C7000204600F02EF9206841680922D2029143F3
:100C80004160206881682A22914381602068016860
:100C9000012211430160204600F080F910BD0000E0
:100CA00010B586B0044614216846FFF777FA164956
:100CB0002068884226D115488269012189030A43A8
:100CC000826182690A4005924269C9000A43426111
:100CD0004069084005900E480090022001900020D5
:100CE0000290032003900120049009206946C00669
:100CF000FFF7BCFA002211461B20FFF7C1FB1B20A7
:100D0000FFF7B2FB06B010BD0038014000100240F2
:100D10000480000070B5436F202B30D100290AD029
:100D2000002A08D08568DC01A54206D10369002BA2
:100D300003D1CB0701D0012070BD034660331E7C78
:100D4000012E1CD001261E74C164014640310A8266
:100D50004A8200214166C16721224267A54202D131
:100D60000269002A09D0074A4266197400680168BE
:100D7000802211430160002070BD034AF4E7022085
:100D800070BD0000A1110008611100087047FEE766
:100D9000F0B587B014216846FFF700FA244842698D
:100DA000012189050A43426142690A40059242696C
:100DB00049110A43426142690A4005924269490069
:100DC0000A4342614069002208400590C121194848
:100DD000FFF7EFFA01273F03092000223946C0063A
:100DE000FFF7E7FA0B20002402256A4631C20920EA
:100DF0006946C006FFF73AFAC12001260090029426
:100E00006946019603940B48FFF730FA009569464E
:100E1000084802950194FFF729FA092002946946CF
:100E2000C006009701960394FFF720FA07B0F0BDC3
:100E3000001002400004004810B50C480A49016047
:100E40004B214902416000218160C16001618161E3
:100E5000C1610C22016242614162FFF7EBFE002892
:100E600001D0FFF7DDF910BD00380140200000205F
:100E700070477047704710B5FFF7A8FA10BD30B53E
:100E800095B030216846FFF789F900240F940220BD
:100E90000D940E94009012940125139410200C943C
:100EA000039504901094119408946846FFF734FC5D
:100EB00007200C900D940E9400210F940CA8FFF7BE
:100EC00057FB10A810951294FFF7DEFA15B030BD4D
:100ED000704710B5818CC90707D001684A680123A3
:100EE0005B049A43836A1A434A60818C890707D559
:100EF00001684A6801231B049A43C36A1A434A6083
:100F0000818C490707D501684A6801239B049A43ED
:100F1000036B1A434A60818C090707D501684A6848
:100F20000123DB039A43436B1A434A60818CC90651
:100F300007D50268916801231B039943836B19430A
:100F40009160818C890607D501688A6801235B035B
:100F50009A43C36B1A438A60818C490612D5036891
:100F60005A6801210905046C8A4322435A60026CC5
:100F70008A4207D10268516803235B059943436C99
:100F800019435160818C090607D501684A6801231D
:100F9000DB04806C9A4302434A6010BDF8B500261A
:100FA0000446C667FFF70CFA054620680068124F32
:100FB000000709D501212B4600224905204600974C
:100FC00000F00CF900280DD12068006840070BD50F
:100FD00001212B46002289052046009700F0FEF8EB
:100FE000002801D00320F8BD20206067A06760348E
:100FF00026740020F8BD0000FFFFFF0110B5406A15
:101000000022014640314A834A82FFF762FD10BD4B
:1010100001680A68FF2321339A430A6001688A68DD
:10102000520852008A6020218167002101667047C2
:1010300070B5044680682169E2690843616900254A
:101040001143226808431168404B19400143116065
:1010500021684868032212039043E2681043486005
:10106000A169206A2268084391680B231B029943F7
:10107000014391603648006B8007800F06D001283D
:1010800015D0022815D003280FD010200122E169C5
:10109000D203304E91422ED100280CD002280DD020
:1010A00004281DD008284AD120E00220EEE70420C1
:1010B000ECE70820EAE7FFF7DFFA13E06168264A69
:1010C00048088018FFF70CF880B201461039B14289
:1010D00035D82049491C01400007400F084321E052
:1010E000FFF7DAFA616840004A08EAE7616801221E
:1010F00048081204E5E7002806D0022807D0042893
:1011000013D008281BD116E0FFF7B6FA0FE061688C
:10111000124A480811E0FEF7E3FF80B20146103999
:10112000B1420CD82168C8600AE0FFF7B5FA6168DF
:101130004A081018EFE7616848088018EBE70125B6
:10114000002020666066284670BD0000F369FFFF3E
:1011500000100240EFFF00000024F40000127A00AB
:10116000416F212910D1014640314A8A002A0CD012
:10117000C26C03681288D205D20D1A85C26C921C0B
:10118000C264488A401E4882704701680A6880230A
:101190009A430A6000680168402211430160704769
:1011A000416F21290ED1014640314A8A002A0AD0D6
:1011B000C26C036812781A85C26C521CC264488AD9
:1011C000401E4882704701680A6880239A430A607B
:1011D000006801684022114301607047FFB581B08B
:1011E00005460F46044660350A9E38E0701C36D02E
:1011F000FFF7E6F80499401AB04221D8002E1FD01C
:101200002068016849072AD5C069C043000526D473
:1012100001202168C002086220680168FF22A13213
:10122000914301602068816849084900816020205D
:101230006067A067E06700202874032005B0F0BD58
:1012400020680168FF22A132914301602068816813
:1012500049084900816020206067A067EBE72068AB
:10126000C1693846884305D0002103988142BDD02A
:101270000020E3E70121F8E710B50248FFF72AFC58
:1012800010BD000020000020F8B5040C8BB22646EB
:1012900082B25E430D0C1046370C58433604801959
:1012A0000021794116466E43370C36048019794186
:1012B00026466E438919F8BD8307FF22DB0E9A404C
:1012C0008907090E9940002808DB830809489B001C
:1012D0001B18186890430843186070470007000FF8
:1012E0000838830804489B001B18D86990430843BA
:1012F000D861704700E400E000ED00E002E008C8BB
:10130000121F08C1002AFAD170477047002001E07F
:1013100001C1121F002AFBD17047000010B500F078
:1013200025F80028FBD000F021F80E4A14460C3CAA
:1013300021785054491C217000F018F80028FBD186
:101340002078042801D0002010BD0020207006491C
:101350000448FEF735FF002801D0022010BD01200F
:1013600010BD00000C00002064140008F0B52748F0
:1013700099B0014614311EC902AD1EC5826841688C
:101380000A91014624310B921EC91EC50169C0682D
:101390001FA30D910C900FCB0EAC0FC40026374647
:1013A000354668000AA91690095AA80002AA1590A5
:1013B00010580122FEF7FDFF002461000CA8415ADD
:1013C000761CA20006A8F6B28058FEF7EDFF0028B2
:1013D00000D03746641CE4B2042CEED316980AA958
:1013E000095A159802AA10580022FEF7E2FF6D1C58
:1013F000EDB2042DD5D3002F05D00EA8C01920388A
:10140000C07F19B0F0BD0020FBE7000064140008A5
:101410003132334134353642373839432A30234468
:10142000FEF7DCFFFFF72BFDFFF7B2FCFFF704FD33
:101430000A4CFFF773FF01280AD00228F9D1A068EF
:10144000FEF7B7FEA16882B20548FFF763FCF0E73C
:101450006068FEF7AEFE82B26168F5E7000000202A
:1014600020000020313233344000800001000010A1
:1014700001000200080002000004004800040048C7
:101480000004004800000048000000480000004838
:1014900000000048000400480000000000000000B8
:1014A000010203040607080900000000010203040A
:1014B0004163636573732064656E6965640A000047
:1014C00041636365737320697320616C6C6F77652A
:1014D000640A0000F414000800000020200000004E
:1014E000FC120008141500082000002080040000F1
:1014F0000C13000800000000C0140008B01400081D
:1015000000000000010000000400000000000000D6
:0415100000127A004B
:04000005080000B13E
:00000001FF
